:10000000020244080B000000000000000001130081
:0800100002080000010A0000D3
:10001B000202D08F1B8E1A8D198C18E47B0AFAF909
:10002B00F81201B274862BF58274033AF583E493CC
:10003B00F512E47B0AFAF9F8AF1BAE1AAD19AC183E
:10004B001201B2E47B0AFAF9F81201B274862BF5AD
:10005B008274033AF583E493F511E47B64FAF9F8BF
:10006B00AF1BAE1AAD19AC181201B2E47B0AFAF948
:10007B00F81201B274862BF58274033AF583E4937C
:10008B00F510E47BE87A03F9F8AF1BAE1AAD19ACA7
:10009B00181201B2E47B0AFAF9F81201B274862B3A
:1000AB00F58274033AF583E493F50FE47B107A271A
:1000BB00F9F8AF1BAE1AAD19AC181201B2E47B0AFA
:1000CB00FAF9F81201B274862BF58274033AF583B0
:1000DB00E493F50E7BA07A8679017800AF1BAE1AFC
:1000EB00AD19AC181201B2E47B0AFAF9F81201B29D
:1000FB0074862BF58274033AF583E493F50D7B40FC
:10010B007A42790F7800AF1BAE1AAD19AC181201F9
:10011B00B2E47B0AFAF9F81201B274862BF58274F9
:10012B00033AF583E493F50C7B807A967998780003
:10013B00AF1BAE1AAD19AC181201B274862FF58233
:10014B0074033EF583E493F50BE4FFEFC39407745C
:10015B008094805015740B2FF8E6FE900386E49381
:10016B00FDEEB50505E4F60F80E12275F00875820A
:10017B0000EF2FFFEE33FECD33CDCC33CCC5823326
:10018B00C5829BED9AEC99E58298400CF582EE9B2B
:10019B00FEED9AFDEC99FC0FD5F0D6E4CEFBE4CD49
:1001AB00FAE4CCF9A88222B800C1B90059BA002DE3
:1001BB00EC8BF084CFCECDFCE5F0CBF97818EF2F9C
:1001CB00FFEE33FEED33FDEC33FCEB33FB10D703CB
:1001DB00994004EB99FB0FD8E5E4F9FA227818EF74
:1001EB002FFFEE33FEED33FDEC33FCC933C910D7D3
:1001FB00059BE99A4007EC9BFCE99AF90FD8E0E4E0
:10020B00C9FAE4CCFB2275F010EF2FFFEE33FEEDB5
:10021B0033FDCC33CCC833C810D7079BEC9AE89985
:10022B00400AED9BFDEC9AFCE899F80FD5F0DAE467
:10023B00CDFBE4CCFAE4C8F922787FE4F6D8FD755F
:10024B00811B02028B02031BE493A3F8E493A340EC
:10025B0003F68001F208DFF48029E493A3F8540736
:10026B00240CC8C333C4540F4420C8834004F45631
:10027B00800146F6DFE4800B010204081020408069
:10028B00900003E47E019360BCA3FF543F30E5096B
:10029B00541FFEE493A360010ECF54C025E060A869
:1002AB0040B8E493A3FAE493A3F8E493A3C8C582FC
:1002BB00C8CAC583CAF0A3C8C582C8CAC583CADF6A
:1002CB00E9DEE780BEC0E0C0D075D000C000C0073B
:1002DB00758DFC758B670509E50970020508C394DC
:1002EB00E8E50894034009750800750900751301CA
:1002FB00AF0A120362C3E50A94077480948050041A
:10030B00050A8003750A00D007D000D0D0D0E032A8
:10031B00E4751757751604F515F514D2AF758910DA
:10032B00758DFC758B67D2ABD28EE513640170FAB9
:10033B00F513AF17AE16AD15AC1412001EE517244E
:10034B00FFF517E51634FFF516E51534FFF515E542
:10035B001434FFF51480D37580FFD2A7A80774015E
:10036B00088002C333D8FCF45280C2A7E4F580D2D4
:10037B00A6740B2FF8E6F580C2A6223F065B4F66EC
:0B038B006D7D077F6F777C395E797114
:00000001FF
