:1000000002018908240000000000000000C1000275
:0700100021000001230000A4
:10001B0002021575F008758200EF2FFFEE33FECD4F
:10002B0033CDCC33CCC58233C5829BED9AEC99E5AD
:10003B008298400CF582EE9BFEED9AFDEC99FC0F3D
:10004B00D5F0D6E4CEFBE4CDFAE4CCF9A88222B805
:10005B0000C1B90059BA002DEC8BF084CFCECDFC8A
:10006B00E5F0CBF97818EF2FFFEE33FEED33FDEC17
:10007B0033FCEB33FB10D703994004EB99FB0FD800
:10008B00E5E4F9FA227818EF2FFFEE33FEED33FD9E
:10009B00EC33FCC933C910D7059BE99A4007EC9B9D
:1000AB00FCE99AF90FD8E0E4C9FAE4CCFB2275F02D
:1000BB0010EF2FFFEE33FEED33FDCC33CCC833C83E
:1000CB0010D7079BEC9AE899400AED9BFDEC9AFC44
:1000DB00E899F80FD5F0DAE4CDFBE4CCFAE4C8F9F3
:1000EB00228F0F8E0E8D0D8C0C751007AF10EF330A
:1000FB0095E0C3648094804037E47B0AFAF9F8AF4B
:10010B000FAE0EAD0DAC0C12005AAF0374112510CF
:10011B00F8A607AF0FAE0EAD0DAC0CE47B0AFAF9E7
:10012B00F812005A8F0F8E0E8D0D8C0C151080BC93
:10013B00E4F510AF10EF3395E0FED3EF9406EE64C9
:10014B00809480501174112FF8E6700A74242FF8E4
:10015B00E4F6051080DDAF10EF3395E0FED3EF949E
:10016B0007EE64809480501574112FF8E69002CD41
:10017B0093FF74242510F8A607051080D922787FE9
:10018B00E4F6D8FD75812B0201D002025FE493A344
:10019B00F8E493A34003F68001F208DFF48029E42E
:1001AB0093A3F85407240CC8C333C4540F4420C87A
:1001BB00834004F456800146F6DFE4800B01020411
:1001CB000810204080900003E47E019360BCA3FFE5
:1001DB00543F30E509541FFEE493A360010ECF5446
:1001EB00C025E060A840B8E493A3FAE493A3F8E435
:1001FB0093A3C8C582C8CAC583CAF0A3C8C582C8A1
:10020B00CAC583CADFE9DEE780BEC0E0C0D075D0C7
:10021B0000C000C007758DFC758B670522E5227049
:10022B00020521C394E8E52194034008D20075210F
:10023B0000752200AF231202A3C3E5239407748039
:10024B009480500405238003752300D007D000D081
:10025B00D0D0E032E4750BE8750A03F509F508D246
:10026B00AF758910758DFC758B67D2ABD28E300054
:10027B00FDC200AF0BAE0AAD09AC081200ECE50BEA
:10028B0024FFF50BE50A34FFF50AE50934FFF50900
:10029B00E50834FFF50880D6E4F580D2A6C2A67532
:1002AB0080FFD2A7A80704088002C333D8FCF452FE
:1002BB0080C2A7E4F580D2A674242FF8E6F580C29D
:1002CB00A6223F065B4F666D7D077F6F777C395E9D
:0202DB00797137
:00000001FF
