:030000000203E612
:10000B000205CE8F0A7E00C3EF943074809480403B
:10001B004AD3EF9439748094805040E47F0AFDFCFE
:10002B00AB64AA63A962A86112014BA804A905AA33
:10003B0006AB07E50A24D0FFE434FFFE3395E0FD61
:10004B00FCEB2FF564EA3EF563E93DF562E83CF520
:10005B0061AF64AE63AD62FC020147E50A642570D3
:10006B0022D3E554940074809480400712047215D7
:10007B0054800C856458856357856256856155D2CB
:10008B00008076E50A64267022D3E55494007480D0
:10009B00948040071204721554800C856458856354
:1000AB0057856256856155D202804EE50A642770EA
:1000BB0022D3E55494007480948040071204721587
:1000CB0054800C856458856357856256856155D27B
:1000DB00038026E50A64287025D3E55494007480C8
:1000EB00948040071204721554800C856458856304
:1000FB0057856256856155D2010554E4801FE50A88
:10010B00640D7022120472AF58AE57AD56AC551237
:10011B000349E4F558F557F556F555F554F564F5DF
:10012B0063F562F56122E50A641B7013F564F563F0
:10013B00F562F561AF64AE63AD62AC611203492247
:10014B00E88FF0A4CC8BF0A42CFCE98EF0A42CFC53
:10015B008AF0EDA42CFCEA8EF0A4CDA8F08BF0A4D1
:10016B002DCC3825F0FDE98FF0A42CCD35F0FCEB30
:10017B008EF0A4FEA9F0EB8FF0A4CFC5F02ECD39F5
:10018B00FEE43CFCEAA42DCE35F0FDE43CFC2275EC
:10019B00F008758200EF2FFFEE33FECD33CDCC335D
:1001AB00CCC58233C5829BED9AEC99E58298400CC5
:1001BB00F582EE9BFEED9AFDEC99FC0FD5F0D6E4A3
:1001CB00CEFBE4CDFAE4CCF9A88222B800C1B90089
:1001DB0059BA002DEC8BF084CFCECDFCE5F0CBF9EA
:1001EB007818EF2FFFEE33FEED33FDEC33FCEB33E2
:1001FB00FB10D703994004EB99FB0FD8E5E4F9FA10
:10020B00227818EF2FFFEE33FEED33FDEC33FCC9F4
:10021B0033C910D7059BE99A4007EC9BFCE99AF987
:10022B000FD8E0E4C9FAE4CCFB2275F010EF2FFFF6
:10023B00EE33FEED33FDCC33CCC833C810D7079B60
:10024B00EC9AE899400AED9BFDEC9AFCE899F80FC3
:10025B00D5F0DAE4CDFBE4CCFAE4C8F922E531259C
:10026B00E025E02432F8E625E0FFA2B4E4334FFFAB
:10027B00E53125E025E02432F8A607E53125E02518
:10028B00E02433F8E625E0FFA2B5E4334FFFE53178
:10029B0025E025E02433F8A607E53125E025E02409
:1002AB0034F8E625E0FFA2B6E4334FFFE53125E055
:1002BB0025E02434F8A607E53125E025E02435F8C0
:1002CB00E625E0FFA2B7E4334FFFE53125E025E05B
:1002DB002435F8A607E4FFEFC39404748094805090
:1002EB0035E53125E025E024322FF8E6540FFD7C6F
:1002FB0000700EE53125E025E024442FF8E4F6806C
:10030B0012ED640F4C700CE53125E025E024442FF1
:10031B00F876010F80C10531533103E53114600FBD
:10032B0014601114601324037013D2B3C2B022D221
:10033B00B0C2B122D2B1C2B222D2B2C2B3228F0E9C
:10034B008E0D8D0C8C0B750F07AF0FEF3395E0C334
:10035B00648094804037E47B0AFAF9F8AF0EAE0D57
:10036B00AD0CAC0B1201D6AF037410250FF8A6071A
:10037B00AF0EAE0DAD0CAC0BE47B0AFAF9F8120123
:10038B00D68F0E8E0D8D0C8C0B150F80BCE4F50FDC
:10039B00AF0FEF3395E0FED3EF9406EE64809480BD
:1003AB00501174102FF8E6700A74592FF8E4F60503
:1003BB000F80DDAF0FEF3395E0FED3EF9407EE64C4
:1003CB00809480501574102FF8E690065893FF74A4
:1003DB0059250FF8A607050F80D922787FE4F6D8A8
:1003EB00FD75816402042D02063DE493A3F8E493AA
:1003FB00A34003F68001F208DFF48029E493A3F80D
:10040B005407240CC8C333C4540F4420C88340047E
:10041B00F456800146F6DFE4800B0102040810203D
:10042B00408090056FE47E019360BCA3FF543F3086
:10043B00E509541FFEE493A360010ECF54C025E0E1
:10044B0060A840B8E493A3FAE493A3F8E493A3C899
:10045B00C582C8CAC583CAF0A3C8C582C8CAC5832A
:10046B00CADFE9DEE780BE30001BE5582564F5588E
:10047B00E5573563F557E5563562F556E555356164
:10048B00F555C2002230021CC3E5589564F558E5BA
:10049B00579563F557E5569562F556E5559561F514
:1004AB0055C2022230031EAF58AE57AD56AC55ABFA
:1004BB0064AA63A962A86112014B8F588E578D569F
:1004CB008C55C2032230011DAF58AE57AD56AC55FB
:1004DB00AB64AA63A962A8611201D68F588E578D9F
:1004EB00568C55C20122E4F508C3E50894047480C8
:1004FB009480506FE4F509C3E509940474809480EB
:10050B00505DE50825E025E024442509F8E6FFE5E4
:10051B000825E025E024212509F8E66F603DEF7002
:10052B0020E50825E025E02468F582E43406F58310
:10053B00E5822509F582E43583F583E493FF120008
:10054B000EE50825E025E024442509F8E6FFE5083B
:10055B0025E025E024212509F8A607050980980543
:10056B00088086220859000000000000000010449B
:10057B000101010101010101010101010101010160
:10058B00C100C102C103C101045500000000046198
:10059B0000000000015400102101010101010101C3
:1005AB000101010101010101010131001032FFFFC5
:1005BB00FFFFFFFFFFFFFFFFFFFFFFFFFFFF0242FA
:1005CB00000000C0E0C0D075D000C000C004C00562
:1005DB00C007758CFC758A67AF43120613C3E543DE
:1005EB009407E5429400500A0543E543700A05421F
:1005FB008006754200754300120268D007D005D003
:10060B0004D000D0D0D0E032E4F580D2A6C2A675DB
:10061B0080FFD2A7A80704088002C333D8FCF4528A
:10062B0080C2A7E4F580D2A674592FF8E6F580C2F4
:10063B00A622D2AF758901758CFC758A67D2A9D2B7
:10064B008C900658E493F5601204F180FB3F065B37
:10065B004F666D7D077F6F777C395E7971313233F1
:0D066B00253435362637383927301B0D2849
:00000001FF
