:0300000002020CED
:10000B000202E7E88FF0A4CC8BF0A42CFCE98EF075
:10001B00A42CFC8AF0EDA42CFCEA8EF0A4CDA8F065
:10002B008BF0A42DCC3825F0FDE98FF0A42CCD3529
:10003B00F0FCEB8EF0A4FEA9F0EB8FF0A4CFC5F093
:10004B002ECD39FEE43CFCEAA42DCE35F0FDE43C8C
:10005B00FC2275F008758200EF2FFFEE33FECD33D7
:10006B00CDCC33CCC58233C5829BED9AEC99E5821E
:10007B0098400CF582EE9BFEED9AFDEC99FC0FD5AA
:10008B00F0D6E4CEFBE4CDFAE4CCF9A88222B8009A
:10009B00C1B90059BA002DEC8BF084CFCECDFCE565
:1000AB00F0CBF97818EF2FFFEE33FEED33FDEC3389
:1000BB00FCEB33FB10D703994004EB99FB0FD8E50E
:1000CB00E4F9FA227818EF2FFFEE33FEED33FDEC57
:1000DB0033FCC933C910D7059BE99A4007EC9BFC4D
:1000EB00E99AF90FD8E0E4C9FAE4CCFB2275F010D9
:1000FB00EF2FFFEE33FEED33FDCC33CCC833C810FE
:10010B00D7079BEC9AE899400AED9BFDEC9AFCE82B
:10011B0099F80FD5F0DAE4CDFBE4CCFAE4C8F92278
:10012B00E52125E025E02422F8E625E0FFA2B4E452
:10013B00334FFFE52125E025E02422F8A607E52132
:10014B0025E025E02423F8E625E0FFA2B5E4334FB4
:10015B00FFE52125E025E02423F8A607E52125E08E
:10016B0025E02424F8E625E0FFA2B6E4334FFFE5B3
:10017B002125E025E02424F8A607E52125E025E04C
:10018B002425F8E625E0FFA2B7E4334FFFE5212550
:10019B00E025E02425F8A607E4FFEFC39404748060
:1001AB0094805035E52125E025E024222FF8E654F4
:1001BB000FFD7C00700EE52125E025E024412FF892
:1001CB00E4F68012ED640F4C700CE52125E025E080
:1001DB0024412FF876010F80C10521532103E5211E
:1001EB0014600F14601114601324037013D2B3C284
:1001FB00B022D2B0C2B122D2B1C2B222D2B2C2B3F9
:10020B0022787FE4F6D8FD7581540202530203561F
:10021B00E493A3F8E493A34003F68001F208DFF420
:10022B008029E493A3F85407240CC8C333C4540F98
:10023B004420C8834004F456800146F6DFE4800B6B
:10024B000102040810204080900298E47E01936024
:10025B00BCA3FF543F30E509541FFEE493A3600198
:10026B000ECF54C025E060A840B8E493A3FAE49302
:10027B00A3F8E493A3C8C582C8CAC583CAF0A3C8B0
:10028B00C582C8CAC583CADFE9DEE780BE0839006C
:10029B0000000000000000104101010101010101FB
:1002AB00010101010101010101C100C103C104C12F
:1002BB0001C10204350000000004510000000001E0
:1002CB0034000121001022FFFFFFFFFFFFFFFFFFA4
:1002DB00FFFFFFFFFFFFFF0232000000C0E0C0D0B6
:1002EB0075D000C000C004C005C007758CFC758AB2
:1002FB0067AF3312032CC3E5339407E532940050F8
:10030B000A0533E533700A05328006753200753302
:10031B000012012BD007D005D004D000D0D0D0E0F4
:10032B0032E4F580D2A6C2A67580FFD2A7A8070437
:10033B00088002C333D8FCF45280C2A7E4F580D204
:10034B00A674392FF8E6F580C2A622D2AF758901C3
:10035B00758CFC758A67D2A9D28C90036EE493F5E9
:10036B004080FE3F065B4F666D7D077F6F777C3964
:10037B005E797131323325343536263738392730AB
:0B038B001B0D28FEFDFBF7EFDFBF7F1E
:00000001FF
