:0300000002014EAC
:10000B000203B0FEFDFB0A17232E38414950565B05
:10001B000201DAE88FF0A4CC8BF0A42CFCE98EF073
:10002B00A42CFC8AF0EDA42CFCEA8EF0A4CDA8F055
:10003B008BF0A42DCC3825F0FDE98FF0A42CCD3519
:10004B00F0FCEB8EF0A4FEA9F0EB8FF0A4CFC5F083
:10005B002ECD39FEE43CFCEAA42DCE35F0FDE43C7C
:10006B00FC2275F008758200EF2FFFEE33FECD33C7
:10007B00CDCC33CCC58233C5829BED9AEC99E5820E
:10008B0098400CF582EE9BFEED9AFDEC99FC0FD59A
:10009B00F0D6E4CEFBE4CDFAE4CCF9A88222B8008A
:1000AB00C1B90059BA002DEC8BF084CFCECDFCE555
:1000BB00F0CBF97818EF2FFFEE33FEED33FDEC3379
:1000CB00FCEB33FB10D703994004EB99FB0FD8E5FE
:1000DB00E4F9FA227818EF2FFFEE33FEED33FDEC47
:1000EB0033FCC933C910D7059BE99A4007EC9BFC3D
:1000FB00E99AF90FD8E0E4C9FAE4CCFB2275F010C9
:10010B00EF2FFFEE33FEED33FDCC33CCC833C810ED
:10011B00D7079BEC9AE899400AED9BFDEC9AFCE81B
:10012B0099F80FD5F0DAE4CDFBE4CCFAE4C8F92268
:10013B00E8600FECC313FCED13FDEE13FEEF13FFA2
:10014B00D8F122787FE4F6D8FD7581200201950263
:10015B000442E493A3F8E493A34003F68001F2086E
:10016B00DFF48029E493A3F85407240CC8C333C4E9
:10017B00540F4420C8834004F456800146F6DFE454
:10018B00800B0102040810204080900419E47E01CA
:10019B009360BCA3FF543F30E509541FFEE493A3C7
:1001AB0060010ECF54C025E060A840B8E493A3FAD9
:1001BB00E493A3F8E493A3C8C582C8CAC583CAF065
:1001CB00A3C8C582C8CAC583CADFE9DEE780BEC043
:1001DB00E0C0F0C083C082C0D075D000C000C001A9
:1001EB00C002C003C004C005C006C007850F8D85C3
:1001FB00138B0509E50964147004D201F509D3E5E5
:10020B00129402748094805026E50890001193FF9D
:10021B001203712000110508C3E50894097480943A
:10022B0080400CD20080081508E5087002C200D08F
:10023B0007D006D005D004D003D002D001D000D017
:10024B00D0D082D083D0F0D0E0328D16AB07AA0687
:10025B00E4F9F8FF7E107D0EFC12032D8F0D8E0C32
:10026B008D0B8C0AAF16E4FCFDFEAB0DAA0CA90B93
:10027B00A80A12001EE47B64FAF9F81200A9AD0774
:10028B00AC06C3E50D9DFFE50C9CAB07FAC3741BD5
:10029B009DFDE49CFCC3741B9BFBE49A8C0E8D10A0
:1002AB00F5148B155389F0438901850E8C85108AC3
:1002BB00D2A9D28CE51190000E93F59022751900FE
:1002CB0075181075170E751600E4FCFDAB19AA18FE
:1002DB00A917A81612001EE47BE87A03F9F812009E
:1002EB00A98F198E188D178C16C374259519F519AE
:1002FB00E49518F51874019517F517E49516F5168E
:10030B00AF19AE18AD17FC780812013B8F0F85198A
:10031B001353890F438910850F8D85138BD2ABD265
:10032B008E22C2D5E830E70FB2D5E4C39BFBE49A2B
:10033B00FAE499F9E498F8EC30E717B2D5120363B5
:10034B001200A9E4C39BFBE49AFAE499F9E498F848
:10035B0080031200A930D50DE4C39FFFE49EFEE499
:10036B009DFDE49CFC22E4FCFDFEAB0DAA0CA90B4D
:10037B00A80A12001EE47B64FAF9F81200A9AD0773
:10038B00AC06C3E50D9DFFE50C9CAB07FAC3741BD4
:10039B009DFDE49CFCC3741B9BFBE49A8C0E8D109F
:1003AB00F5148B1522C0E0C083C082C0D075D0007D
:1003BB00C007AF90EFF4701085148C85158AE5118A
:1003CB0090000E93F5908009850E8C85108A7590A0
:1003DB00FFD007D0D0D082D083D0E032E512702B83
:1003EB00E51114600F14601424027021751101754E
:1003FB001202800E7511027512098006E4F5117553
:10040B001209E51190000E93F59022151222040AA1
:10041B0000000000010E0001100001140001150086
:10042B00010F00011300011209011100C1010108A4
:10043B0000C10001090000D2AF7D0A7F647E00126B
:10044B0002557F327E001202C83001FDC201120339
:03045B00E780F641
:00000001FF
