:03000000020230C9
:10000B0002040ABC000BBE0029EF8DF084FFADF09B
:10001B0022E4CCF875F008EF2FFFEE33FEEC33FC47
:10002B00EE9DEC984005FCEE9DFE0FD5F0E9E4CE7D
:10003B00FD22EDF8F5F0EE8420D21CFEADF075F04C
:10004B0008EF2FFFED33FD4007985006D5F0F22255
:10005B00C398FD0FD5F0EA22E88FF0A4CC8BF0A467
:10006B002CFCE98EF0A42CFC8AF0EDA42CFCEA8E7F
:10007B00F0A4CDA8F08BF0A42DCC3825F0FDE98FA2
:10008B00F0A42CCD35F0FCEB8EF0A4FEA9F0EB8F99
:10009B00F0A4CFC5F02ECD39FEE43CFCEAA42DCE66
:1000AB0035F0FDE43CFC2275F008758200EF2FFF64
:1000BB00EE33FECD33CDCC33CCC58233C5829BED35
:1000CB009AEC99E58298400CF582EE9BFEED9AFD39
:1000DB00EC99FC0FD5F0D6E4CEFBE4CDFAE4CCF9E9
:1000EB00A88222B800C1B90059BA002DEC8BF0845C
:1000FB00CFCECDFCE5F0CBF97818EF2FFFEE33FE2A
:10010B00ED33FDEC33FCEB33FB10D703994004EBE1
:10011B0099FB0FD8E5E4F9FA227818EF2FFFEE33AD
:10012B00FEED33FDEC33FCC933C910D7059BE99ABF
:10013B004007EC9BFCE99AF90FD8E0E4C9FAE4CC50
:10014B00FB2275F010EF2FFFEE33FEED33FDCC33BA
:10015B00CCC833C810D7079BEC9AE899400AED9BA3
:10016B00FDEC9AFCE899F80FD5F0DAE4CDFBE4CC82
:10017B00FAE4C8F922E8600FECC313FCED13FDEEB3
:10018B0013FEEF13FFD8F122E53975F00A84E5F081
:10019B009004D193F538E53975F00A8493F537AEB1
:1001AB003AAF3B7C007D0A12000E8D0BAE3AAF3B93
:1001BB007C007D0A12000E7C007D0A12000E8D0A57
:1001CB00AE3AAF3B7C007D6412000E7C007D0A12C0
:1001DB00000E8D09AE3AAF3B7C037DE812000E7C1E
:1001EB00007D0A12000E8D08E4FFEFD39402748099
:1001FB009480501074082FF8E6700974332FF8E4CC
:10020B00F60F80E6EFD39403748094805013740838
:10021B002FF8E69004D193FE74332FF8A6060F80C7
:10022B00E343368022787FE4F6D8FD75813B0202EA
:10023B00770204A6E493A3F8E493A34003F68001AA
:10024B00F208DFF48029E493A3F85407240CC8C305
:10025B0033C4540F4420C8834004F456800146F63F
:10026B00DFE4800B0102040810204080900445E479
:10027B007E019360BCA3FF543F30E509541FFEE49D
:10028B0093A360010ECF54C025E060A840B8E4935F
:10029B00A3FAE493A3F8E493A3C8C582C8CAC583A1
:1002AB00CAF0A3C8C582C8CAC583CADFE9DEE78026
:1002BB00BE750B00750A1075090E750800E4FCFD80
:1002CB00AB0BAA0AA909A808120063E47BE87A031E
:1002DB00F9F81200EE8F0B8E0A8D098C08C3E4958A
:1002EB000BF50BE4950AF50A74019509F509E495EC
:1002FB0008F508E50B2420F50BE4350AF50AE4357F
:10030B0009F509E43508F508758901AF0BAE0AAD9F
:10031B0009AC0878081201808F2F850B30D2A9D237
:10032B008C22E52625E0FFA2B0E4334FF526E52726
:10033B0025E0FFA2B1E4334FF527E52825E0FFA226
:10034B00B2E4334FF528E52925E0FFA2B3E4334FA0
:10035B00F529E4FFEFC39404748094805020742635
:10036B002FF8E6FD7C007008742B2FF8E4F6800B59
:10037B00EDF44C7006742B2FF876010F80D622E427
:10038B00FFEFFD7C00C39404748094805032742B77
:10039B002FF8E6FE74212FF8E66E6021EE7012ED59
:1003AB00640170051204BC8008EF64027003120430
:1003BB00C8742B2FF8E6FE74212FF8A6060F80C108
:1003CB0022E4F580D2A6C2A67580FFD2A7AF25A8DE
:1003DB000704088002C333D8FCF45280C2A7E4F5AB
:1003EB0080D2A674312525F8E6F580C2A6C3E52593
:1003FB009407748094805003052522E4F52522C0D0
:10040B00E0C0D075D000C000C004C005C007852F68
:10041B008C85308A1203CC12032D052AC3E52A944E
:10042B0005748094804006752A00120479D007D099
:10043B0005D004D000D0D0D0E0320831000000004D
:10044B0000000000042B01010101C101C180013931
:10045B0000023A0000012F000130000421010101CC
:10046B00010125000426FFFFFFFF012A00003001D8
:10047B00290539C3E539946474809480401A053B8F
:10048B00E53B7002053AE4F539E53B9410E53A9407
:10049B00274005E4F53AF53BD20022D2AF7F027E2E
:1004AB00001202BC300005C20012019312038A80B5
:1004BB00F3C201E4F539F53AF53BD20022300103E2
:1004CB00C20122D201223F065B4F666D7D077F6F13
:0604DB00777C395E7971A7
:00000001FF
